:020000040800F2
:1000000000000220890600088506000875600008C7
:100010008506000885060008850600080000000027
:10002000000000000000000000000000850600083D
:10003000850600080000000085060008F95F00083A
:100040008506000885060008850600088506000864
:100050008506000885060008850600088506000854
:10006000850600088506000885060008214D000861
:100070002D4D000805360008394D0008454D000893
:100080003D21010805420008850600088506000894
:100090008506000885060008850600088506000814
:1000A0008506000885060008850600088506000804
:1000B0006915010875150108811501083942000804
:1000C000850600084542000885060008F958000822
:1000D00005590008711F01089D1F0108D11F010863
:1000E0008506000885060008000000008506000857
:1000F00085060008850600088506000885060008B4
:1001000085060008850600088D15010811590008AC
:100110000520010839200108D138000885060008AB
:10012000B9380008C5380008355900086959000871
:10013000712101088506000885060008850600086B
:1001400000000000000000000000000000000000AF
:100150008506000885060008850600086D20010850
:100160005142000885060008096000082D6000085B
:10017000850600085160000885060008850600080D
:100180008506000885060008A1200108D520010881
:100190001D59000829590008850600088506000831
:1001A0008506000885060008850600088506000803
:1001B000414A0008850600088506000885060008F3
:1001C0008506000885060008C5300008D130000803
:1001D00085060008DD300008850600088506000851
:1001E00085060008850600088506000885060008C3
:1001F00085060008850600088506000885060008B3
:1002000085060008850600088506000885060008A2
:100210008506000885060008850600088506000892
:100220008506000885060008850600080000000015
:100230008506000885060008000000008506000805
:100240008506000885060008850600088506000862
:100250008506000885060008850600088506000852
:100260008506000885060008850600088506000842
:100270008506000885060008092101080000000025
:1002800085060008850600088506000800000000B5
:080290000000000085060008D3
:1002A00010B5054C237833B9044B13B10448AFF3B0
:1002B00000800123237010BD2006002400000000F0
:1002C000385D010808B5034B1BB103490348AFF380
:1002D000008008BD0000000024060024385D0108ED
:1002E00001F0FF01102A2BDB10F0070F08D010F8E7
:1002F000013B013A8B422DD010F0070F42B3F6D1EB
:10030000F0B441EA012141EA014122F007047FF003
:1003100000070023F0E80256083C85EA010586EA5A
:10032000010685FA47F5A3FA87F586FA47F6A5FA96
:1003300087F68EB9EED1F0BC01F0FF0102F00702A2
:1003400032B110F8013B013A83EA010313B1F8D14D
:100350000020704701387047002D06BF354603382E
:10036000073815F0010F07D1013015F4807F02BF67
:10037000013015F4C03F0130F0BC0138704700BFB8
:1003800053B94AB9002908BF00281CBF4FF0FF31FC
:100390004FF0FF3000F074B9ADF1080C6DE904CEF8
:1003A00000F006F8DDF804E0DDE9022304B0704750
:1003B0002DE9F047089D04468E46002B4DD18A4218
:1003C000944669D9B2FA82F252B101FA02F3C2F14B
:1003D000200120FA01F10CFA02FC41EA030E9440DC
:1003E0004FEA1C48210CBEFBF8F61FFA8CF708FBFD
:1003F00016E341EA034306FB07F199420AD91CEBD5
:10040000030306F1FF3080F01F81994240F21C8106
:10041000023E63445B1AA4B2B3FBF8F008FB10334E
:1004200044EA034400FB07F7A7420AD91CEB040483
:1004300000F1FF3380F00A81A74240F20781644453
:10044000023840EA0640E41B00261DB1D4400023D8
:10045000C5E900433146BDE8F0878B4209D9002D3C
:1004600000F0EF800026C5E9000130463146BDE8C6
:10047000F087B3FA83F6002E4AD18B4202D3824230
:1004800000F2F980841A61EB030301209E46002DDF
:10049000E0D0C5E9004EDDE702B9FFDEB2FA82F234
:1004A000002A40F09280A1EB0C014FEA1C471FFA92
:1004B0008CFE0126200CB1FBF7F307FB131140EA79
:1004C00001410EFB03F0884208D91CEB010103F146
:1004D000FF3802D2884200F2CB804346091AA4B208
:1004E000B1FBF7F007FB101144EA01440EFB00FEDC
:1004F000A64508D91CEB040400F1FF3102D2A64541
:1005000000F2BB800846A4EB0E0440EA03409CE7DF
:10051000C6F12007B34022FA07FC4CEA030C20FA8C
:1005200007F401FA06F31C43F9404FEA1C4900FAAC
:1005300006F3B1FBF9F8200C1FFA8CFE09FB181129
:1005400040EA014108FB0EF0884202FA06F20BD99C
:100550001CEB010108F1FF3A80F08880884240F2EC
:100560008580A8F102086144091AA4B2B1FBF9F030
:1005700009FB101144EA014100FB0EFE8E4508D92B
:100580001CEB010100F1FF346CD28E456AD90238B0
:10059000614440EA0840A0FB0294A1EB0E01A14295
:1005A000C846A64656D353D05DB1B3EB080261EB03
:1005B0000E0101FA07F722FA06F3F1401F43C5E9DD
:1005C000007100263146BDE8F087C2F12003D84013
:1005D0000CFA02FC21FA03F3914001434FEA1C4755
:1005E0001FFA8CFEB3FBF7F007FB10360B0C43EA47
:1005F000064300FB0EF69E4204FA02F408D91CEBF7
:10060000030300F1FF382FD29E422DD902386344F4
:100610009B1B89B2B3FBF7F607FB163341EA034194
:1006200006FB0EF38B4208D91CEB010106F1FF38E3
:1006300016D28B4214D9023E6144C91A46EA0046DA
:1006400038E72E46284605E70646E3E61846F8E66C
:100650004B45A9D2B9EB020864EB0C0E0138A3E7B5
:100660004646EAE7204694E74046D1E7D0467BE796
:10067000023B614432E7304609E76444023842E70E
:10068000704700BFFEE700BF0B480C4A904203D002
:10069000121A0B4913F0E0FD0A480B4A904203D0AE
:1006A000121A002113F000FE05F03EFF13F0A0FD2A
:1006B00000F008FDFEE700BF000000241C06002437
:1006C000705D01082006002470630024704700BF9D
:1006D000704700BF704700BF08B541B9084802F035
:1006E000D3FB01210748BDE8084003F043BB06489F
:1006F00002F0CAFB01210348BDE8084003F03ABB01
:10070000EC57010858060024F4570108002A00F0AD
:10071000B9802DE9F84F83468A4616460024DFF853
:100720008481594F594DDFF880913DE0584A59492D
:10073000136809688B425EDA013398F80000136091
:10074000F6EE006A03284FEA8401DBE9002302EB9E
:10075000840203EB840392ED007AD3ED007A27EE56
:10076000267A67EEA67A3DD02A68D0003844DAF8B7
:100770000030D9F800C00132D0ED006A0B440134DA
:1007800036EE877AA64283ED007A90ED017ADAF8A8
:10079000043077EE277A0B44B2FBFCF00CFB1022FE
:1007A000C3ED007A2A6047D03B4813F06BFC002869
:1007B000BCD198F80000C3E7DBF80030F6EE006A21
:1007C000A10003EB840393ED007ADBF8043027EEFD
:1007D000267A03EB8403D3ED007A032367EEA67A2F
:1007E00088F800302A6807EBC203D00083ED007A56
:1007F000C3ED017ABAE7294802F046FB0123244AF7
:10080000136098F80030012BD6D0032B36D0ABB153
:10081000DBF80030F6EE006AA10003EB840393EDF1
:10082000007ADBF8043027EE267A03EB8403D3ED5D
:10083000007A67EEA67A97E7BDE8F88F0423184997
:1008400088F80030104B002243F8042B8B42FAD179
:10085000DBF80030F6EE006A2A68A10003EB84039F
:10086000D00093ED007ADBF8043027EE267A03EB14
:100870008403D3ED007A67EEA67A77E7022388F83F
:100880000030E5E7704700BF000000C06C060024A0
:10089000080000240C000024A008002400580108CF
:1008A00004905FC1140000249C0800242DE9F84343
:1008B00081EAE1740546CE0FA4EBE174092C73D9EB
:1008C000632C4DD9B4F57A7F7BD342F20F739C42EF
:1008D00074D92046012105E0634555D9734559D3A4
:1008E00043455CD90346384A384F8946A2FB030288
:1008F000DFF8E4C0BB42DFF8E4E0DFF8E4804FEA71
:10090000523001F10401E7D809F10307314405F140
:10091000080328462D222B6013F021FC2B682C485D
:100920001E44F1192B4B6422A44642F20F77A3FB1D
:1009300004E30239BC454FEA531302FB13421C4641
:1009400000EB420310F812205B784A708B70E9D8F4
:10095000BCF57A7F0ED2303428463470BDE8F88377
:1009600000F10803B11C2D22036013F0F8FB2B6883
:1009700017481E4400EB440310F8142028465B7807
:1009800032707370BDE8F88309F105090F4609EB71
:100990000601BCE709F1060109F10507B6E709F10F
:1009A000070109F10607B1E700F10803711C2D22C8
:1009B000036013F0D4FB2B681E44CCE7032704210B
:1009C000A4E702270321A1E75917B7D19F860100A9
:1009D000945801081F85EB513F420F008096980004
:1009E000FFE0F5052DE9F0410D4682B001210646F4
:1009F000154803F0BFF90021144803F0BBF905B313
:100A0000DFF8508006E0CDE900C705F0E5F92D1BC1
:100A1000264416D04FF6FF74B8F800300027DFF8F0
:100A200038C0AC4231460A4828BF2C46AB423B4650
:100A30002246E8D96423064805F0C4F92D1B264454
:100A4000E8D102B0BDE8F081700600245806002409
:100A5000C408002404000024D906000830B585B07D
:100A6000054615486B468DF80F5083E806000021B7
:100A7000009C03F07FF90021104803F07BF9642308
:100A800001220DF10F010E4805F09CF901210B48E0
:100A900003F070F9019D2544AC420AD014F8013BE3
:100AA00001210DF10F008DF80F30FFF79BFFAC42D5
:100AB000F4D105B030BD00BF7006002458060024F4
:100AC000C40800242DE9F043754C83B01D462A2349
:100AD00094F80480074689461646B8F1010F8DF850
:100AE00007307ED00DF1070400216E48143703F063
:100AF00041F900216C48133603F03CF901226423CC
:100B000021466A48013D05F05DF90121664803F080
:100B100031F9C7F30723BFB2012120468DF8073012
:100B2000FFF760FF012120468DF80770B7B2C6F3CA
:100B30000726FFF757FF012120468DF80760FFF7D2
:100B400051FF012120468DF80770FFF74BFF2B2343
:100B5000002154488DF8073003F00CF90021524869
:100B600003F008F9012264232146504805F02AF9D0
:100B700001214D4803F0FEF801214FEA19232046D8
:100B80008DF80730FFF72EFF012120468DF80790E2
:100B9000FFF728FFC5F3072301212046ADB28DF8EA
:100BA0000730FFF71FFF204601218DF80750FFF7A0
:100BB00019FF2C2300213B488DF8073003F0DAF8A9
:100BC0000021394803F0D6F8214664230122374832
:100BD00005F0F8F80121344803F0CCF803B0BDE883
:100BE000F0830DF1070400212E4809F1140903F0E8
:100BF000C1F800212C48133503F0BCF842466423A9
:100C000021462A4805F0DEF84146274803F0B2F8AD
:100C100041463B0A20468DF80730FFF7E3FE414688
:100C200020468DF80770FFF7DDFE330A4146204667
:100C30008DF80730FFF7D6FE414620468DF8076055
:100C4000FFF7D0FE2B23002116481FFA89F68DF8F6
:100C5000073003F08FF80021134803F08BF864236A
:100C6000424621461148C9F3072905F0ABF8414631
:100C70000D4803F07FF8414620468DF80790FFF7B6
:100C8000B1FE414620468DF80760FFF7ABFEC5F385
:100C900007234146ADB220468DF8073081E700BFFB
:100CA0003C0600247006002458060024C4080024D2
:100CB0002DE9F04F0021A3B005469E4803F05AF8F5
:100CC000642005F049FA01219A484FF0360803F0F4
:100CD00051F8782005F040FA002D4FF00001964BB6
:100CE00008BF70221EAC18BF0A4694481D711CAF85
:100CF0008DF8702001258DF8788003F03BF80021F5
:100D00008F4803F037F86423012221468D480026DE
:100D100005F058F801218A484FF0110A03F02AF82B
:100D2000384601214FF0A10BFFF75CFE40468DF8DD
:100D30007860A0460DF10409CDE91C4597E806004E
:100D4000FFF78CFE1AAB05273A20CDE91A4593E848
:100D500006008DF87870FFF781FE0B2318AA19970B
:100D600035278DF87830B2208DF8793033231894F8
:100D70008DF87C708DF87B308DF87A6006CAFFF7AD
:100D80006DFE16ABB7208DF878A0CDE9164593E837
:100D90000600FFF763FE14ABBB208DF878706A4F36
:100DA000CDE9144593E80600FFF758FE12AB2C225C
:100DB000C020CDE912458DF8782093E80600FFF7B2
:100DC0004DFE10ABC2208DF87850CDE9104593E868
:100DD0000600FFF743FE0EAB0D22C320CDE90E4502
:100DE0008DF8782093E80600FFF738FE0CAB202240
:100DF000C420CDE90C458DF8782093E80600FFF774
:100E00002DFE0AAB1322C620CDE90A458DF87820C5
:100E100093E80600FFF722FE0223A4220894099318
:100E200008AB8DF87820D0208DF879B093E80600D3
:100E3000FFF714FE06ABD6208DF878B0CDE9064555
:100E400093E80600FFF70AFE0E230DF1100C049440
:100E5000059397E80F00A8E807009CE80600A8F8AB
:100E60000030E020FFF7FAFD10370E230DF1080ED9
:100E7000A4460294039397E80F00ACE807009EE8AD
:100E80000600A8F80030E120FFF7E8FD0323CDF8C5
:100E90007890E4201F9325238DF805608DF80430A9
:100EA0008DF8066094E80600FFF7D8FD212331464F
:100EB00022488DF8043002F05DFF3146204802F0F0
:100EC00059FF2A46642349461E4804F07BFF294601
:100ED0001B4802F04FFF314618488DF804A002F07D
:100EE00049FF3146164802F045FF2A466423494629
:100EF000144804F067FF2946114802F03BFF7820B0
:100F000005F02AF9292331460C488DF8043002F007
:100F100031FF31460A4802F02DFF64232A46494634
:100F2000084804F04FFF2946054802F023FF23B08C
:100F3000BDE8F08FB00800243C06002470060024B1
:100F400058060024C4080024805701082DE9F04FFA
:100F50008DB00F460293A2F14103179DD9B20790BD
:100F6000192905D9A2F13003092B30D8A2F11603B3
:100F7000029903EB8303304A4FEA112BA9B208917F
:100F8000169989B20491511D1A44CB180592099300
:100F9000059B4FF0020A13F8012B0593079B039260
:100FA0000193039B43FA0AF3DB0713D4019B0AF175
:100FB000FF3A049ABAF1FF3F13449BB20193F0D178
:100FC000089B099A1F44059B9342BFB2E0D10DB024
:100FD000BDE8F08F169B002BE8DD4FF00008994626
:100FE000CDF818A0002D1FDD019B00249DF808609E
:100FF00003EB08021FFA82FA3B19524650460134AD
:101000009BB21946FFF75EFD01210DF12F008DF80F
:101010002FB0FFF7E7FC01210DF12F008DF82F60B5
:10102000FFF7E0FCA542E7D108F10108C145D9D19D
:10103000DDF818A0BAE700BF605901082DE9F047B4
:10104000154682B012780A9FDDF82C90A2B117FBEA
:1010500007F884B21FFA81FA9EB21FFA88F8204678
:10106000334651464444CDE90079FFF76FFF15F848
:10107000012FA4B2002AF2D102B0BDE8F08700BF70
:10108000F0B50D461C4607461646641B83B0F61B9A
:101090009BB2651C92B289B206FB055580B2FFF780
:1010A00011FD65B1002400230134022101A88DF84F
:1010B00004308DF80530FFF795FCAC42F3D103B056
:1010C000F0BD00BF2DE9F04FBE4897B000F07CFBAB
:1010D000002001F0E7FEBC4801F0D6FE02230C22FE
:1010E000082609218DF814308DF8152000249FED75
:1010F000B70A01258DF80C308DF81030B448059BE7
:101100008DF80D108DF81160DFF838A3DFF8388303
:10111000DFF83893AF4FDDE9031201F0BBFDAE48B5
:1011200001F0B2FEAD4A0021AD4813F0BDF8AD4864
:1011300001F0AAFEAC49A34800F094FCAB4801F0D2
:10114000A3FEDFEDC40A9AED000AA94812F088FF59
:10115000A84BA9481A7859782346009442EA0121FD
:10116000012202F021FDA54B00941A7859782346FC
:10117000A34842EA0121012202F016FDA14B00948E
:101180001A7859782346A04842EA0121012202F048
:101190000BFD9E4B00941A78597823469C4842EAEE
:1011A0000121012202F000FD9A4B9B480C9303F1B0
:1011B00000731494A3F10113159411960D93032356
:1011C000CDE90E541093CDE9124401F05DFE0CA957
:1011D000924804F06FFD924A924BA0420CBF104619
:1011E000184601F051FE2946894802F0C3FD284601
:1011F000FFF75EFD4FF48C73F02221462046042455
:10120000FFF73EFF06A8D8F80010FFF74FFB1421A8
:101210004FF6FF73069A08466D4DCDE90044FFF77F
:101220000DFF06A812F082FF4FF6FF737E4A2C21B5
:101230001420CDE90044FFF701FF624800F016FCDE
:10124000604800F01FFC624801F054FD2B7B63B145
:10125000AB7C7F2B09D199F80030022B00F09681EE
:10126000042B02D1012389F800302B79002BE4D024
:101270006B6A5A1C00F0F080012BDED1D8F8000018
:10128000FF28DADC40009AED006ADFED726A142173
:1012900007EE900AC8F80000644840F2B134F8EE56
:1012A000E77A2823402286EE277AC6EE877AFCEE7C
:1012B000E77AC0ED007A0846FFF704FC002302211C
:1012C00006A88DF818308DF81930FFF78BFB013C1C
:1012D000F4D1D8F8003083EAE3744FEAD37BA4EB6F
:1012E000E374092C40F2AD81632C40F26781B4F5C0
:1012F0007A7FC0F0B18142F20F739C4240F2AE811E
:1013000023460126A64608E0824240F28481A2429A
:10131000C0F06E81624540F27B81454C1A464549DA
:101320000436A4FB034344488A42444CDFF820C1FE
:101330004FEA5333E8D8744608AB0BEB0601013E85
:1013400006932D2206A812F00AFF069B9B445E44DA
:101350003B4B6422023EA3FB041321465B0902FBC4
:1013600013421C4642F20F7307EB420017F812209B
:10137000994272704278B270EAD8B1F57A7F80F003
:10138000278130348BF80040069802788AB10646EF
:101390001424042120464FF6FF731034CDE90011C8
:1013A0001421A4B2FFF7D2FD16F8012F002AF0D1C4
:1013B000069808AB98423FF440AF0899013112F00B
:1013C00080FE3AE7AC060024245801080000000023
:1013D00084060024945801083C58010804905F01D9
:1013E000000000C0545801080D07000864580108A7
:1013F000A00800241C5A0108B0080024205A010843
:1014000070060024185A010858060024245A0108BE
:10141000440600240303020278580108C40800248B
:1014200008580108145801088C5801089C08002429
:101430005917B7D19F8601003F420F008096980050
:101440001F85EB51100000240C0000241400002420
:10145000FFE0F50500803B47D8F8000001287FF742
:10146000ECAE40109AED006A5FED066A142107EEBB
:10147000900AC8F800007A4840F2B134F8EEE77AF2
:101480002823402286EE277AC6EE877AFCEEE77A9A
:10149000C0ED007A0846FFF715FB0023022106A8DD
:1014A0008DF818308DF81930FFF79CFA013CF4D113
:1014B000D8F8003083EAE3744FEAD37BA4EBE374FB
:1014C000092C40F2AF80632C64D9B4F57A7FC0F068
:1014D000B48042F20F739C4240F2B1802346012651
:1014E000A64606E0824240F28680A2427AD3624556
:1014F0007BD95C4C1A465C490436A4FB03435B4829
:101500008A425B4CDFF870C14FEA5333EAD8744625
:1015100008AB0BEB06012D2206A8069312F01FFE66
:10152000069B013E9B445E44524B6422023EA3FB59
:10153000041321465B0902FB13421C4642F20F735F
:1015400007EB420017F81220994272704278B2708D
:10155000EAD8B1F57A7F27D230348BF8004006986C
:101560000278002A3FF425AF0646142404212046C1
:101570004FF6FF731034CDE900111421A4B2FFF728
:10158000E5FC16F8012F002AF0D111E7002389F8B5
:1015900000306AE608AB0BF102012D2206A8069383
:1015A00012F0DDFD069B9B4407EB440317F8142063
:1015B0005B788BF800208BF80130D0E708AB0BF19B
:1015C00002012D2206A8069312F0C9FD069B9B443A
:1015D00007EB440317F814205B788BF800208BF896
:1015E0000130D1E67446023692E7744603368FE73F
:1015F00074460236A0E60BF1010108AB2D2206A8C5
:1016000031440693744612F0AAFD069B9B448AE778
:101610007446033690E608AB0BF101017446314481
:1016200006938EE608AB0BF101012D2206A8069366
:1016300012F095FD069B9B448EE70126D3E7012619
:10164000D4E708AB0BF101012D2206A8069312F096
:1016500086FD069B9B4494E60126CAE70126D8E74F
:101660009C0800245917B7D19F8601003F420F0004
:10167000809698001F85EB51FFE0F50510B500231B
:101680004FF60B711A4C1B4A1B48C4E90013C2E900
:101690000013C2E90233C0E90013C0E90233174A5C
:1016A0001748C4E90233174C036223608362C0F811
:1016B000C811C0F8D431C2E90013C2E90233C0E94D
:1016C0006C13114A1149C0E90333C0E96E33C0E914
:1016D000733312F0F1FC0C4A0D490E4812F0ECFC89
:1016E000094A0D490D48BDE8104012F0E5BC00BFA5
:1016F000B008002470060024580600244406002484
:10170000AC060024C408002400000024D106000810
:10171000CD06000884060024D5060008A008002491
:1017200000294ED0274BF0B5D0E90024481E03F124
:101730000C0E951C03F1100C4E00AC4218BF05288E
:1017400002EB41058CBF01200020624538BFAE4549
:101750002CBF01270027384227D02644644538BFD4
:10176000B64522D39D890026D8894FEA510E65F3EC
:101770000F06A44602EB8E0E65F31F46002560F3AC
:101780000F0560F31F45104640F8046B70454CF898
:10179000045BF9D121F00100C90705D5998922F828
:1017A0001010DB8924F81030F0BD023A023C023DF3
:1017B000998922F8021FAA42D98924F8021FF7D179
:1017C000F0BD7047C80800242DE9F04340F2011332
:1017D000964A012706462DED028BDDB0C0F8EC21BC
:1017E000ADF81C30002306978DF81E3004F052FE31
:1017F000044604F0B3FC06A90546002840F0008129
:10180000002C00F0FD8030468DF81E7004F0C8FDFD
:10181000072C0DF198080DD0854906F10C00854B79
:10182000854ACDE92613012341462892ADF8A4301C
:1018300002F082FF032201234FF000091CA904A833
:1018400006F11005CDF870904446CDF810905CAFCD
:10185000CDE9202300220123CDE92223774B012269
:101860001D9303F1007303F540731E934FF441730E
:10187000ADF87C300023CDE9242303F0DDFA012309
:101880000CA905A80C930E931023CDF814908DF895
:1018900040306B4BCDF83C900D9302F0DFFC059986
:1018A00006F1200000F004F94FF07E533020049A36
:1018B0000A9308A90B930323CDE90803284601F0F6
:1018C000E9F8284601F022F92846B0EE408A01F0F6
:1018D00019F9D0ED007A0DF1580CDFF884E1F8EE3B
:1018E000677A6546BEE80F0088EE277AACE80F00FD
:1018F0009EE803008CE8030086ED7A7A35F8023B17
:10190000204612340222ADF80C30039901F0ECFBB2
:10191000A742F3D106F1140704230C2241463846AE
:1019200006F1300500249FED478A01F0F1FB09E044
:1019300001F012FE96ED7A0A01462846013401F0C4
:101940004FF92035072CE1B23846F1D9E1B2013424
:1019500001F002FE00230146F0EE480A28461A462E
:1019600096ED7A0A01F00AF90C2CEAD13046364B92
:1019700040F82C3F02F008FA344B012206F5D870EB
:10198000196801F0F5F9324B012206F5E470196887
:1019900001F0EEF92F4B06F5F070C6F8E03102F0D9
:1019A000F3F92D4B06F5F270C6F8E43102F0ECF9CC
:1019B0000123D6F8EC0111A9CDE91333022310302D
:1019C0001293002315934BF68033119302F018F80D
:1019D000384601F0ABFDD6F8EC41237D04F110054B
:1019E000FBB928461D4D2368D4E90112009502F089
:1019F00085F8012323755DB0BDEC028BBDE8F08353
:101A0000304604F0CDFC25B106F1080000F052F993
:101A1000FEE6002C7FF4FCAE06F1080000F04AF967
:101A2000F6E6284602F0A0F8DBE700BFC80800246D
:101A30000508050905070506050A0606040204044B
:101A4000010A010B6F12033B02070100285A01082B
:101A5000145A0108020E0100020D010021170008AE
:101A6000A0570108103001F055B800BF38B500F19B
:101A7000300400F5D8752046203401F0E7F8AC4278
:101A8000F9D138BD704700BF07490022074B01F16B
:101A9000600010B4302459601A611C601A755DF83A
:101AA000044BC3E90202704700000030C80800245C
:101AB000F0B58C2387B00160002203710124FA265F
:101AC000194605AB8DF81420029640220093234658
:101AD0000194054602F058FC002840F09B809DF8D8
:101AE00014300DF117074022284603F07F030097BA
:101AF000CDE901468DF814308DF817302346297949
:101B000002F068FC002840F08580042004F024FBEB
:101B100005AB4022284600932346CDE901462979AA
:101B200002F032FC002875D19DF814304022009755
:101B3000284603F0BF03CDE901468DF814308DF837
:101B400017302346297902F045FC002862D1042091
:101B500004F002FB0DF115034322284600932346AF
:101B6000CDE90146297902F00FFC002852D10DF190
:101B700016034822284600932346CDE901462979D9
:101B800002F002FC002845D19DF815304322009751
:101B9000284643F001038DF815308DF817309DF875
:101BA000163043F00103CDE901468DF81630234687
:101BB000297902F00FFC68BB9DF816304822009787
:101BC00028468DF817302346CDE90146297902F0E1
:101BD00001FCF8B905AB4022284600932346CDE925
:101BE0000146297902F0D0FBA0B99DF814202346C4
:101BF0000194284602F0CF040296009740222979EA
:101C00008DF814408DF8174002F0E4FB003818BF3F
:101C1000012000E0012007B0F0BD00BFF0B51023A7
:101C200087B0234C012200250126002702A9204667
:101C30000195CDE902234FF48052CDE904670CF001
:101C40005FFA642005F064FA02A94FF4805220463E
:101C5000CDE9046702261027CDE902670CF050FA9F
:101C60000322102302A92046CDE9022300230422E7
:101C7000CDE904234FF480520CF042FA40F23223B3
:101C8000042202A9019310232046CDE90223019AE0
:101C9000012305924FF4805204930CF031FA40F680
:101CA000060120460CF04CFA284607B0F0BD00BFF4
:101CB000E80800241C4B00221C494FF0400C30B5B2
:101CC000054689B00220596007219A601A620124F2
:101CD000DA620A224FF4006EDC6006922022CDE91F
:101CE000000104200821CDE9020103201021CDE9E3
:101CF000040108206946C3E904024FF4C072181DAC
:101D0000C3E906C24FF48052C3E909E20CF0CEF9F0
:101D100038B92846FFF782FF003818BF012009B004
:101D200030BD204609B030BDE408002440410052D7
:101D3000614A0021D0B513688EB00A91002B40F0A3
:101D4000B9805E4B01214FF683700C241160022193
:101D5000D3F8D4200026032742F48052C3F8D420BD
:101D6000D3F8D42002F480520092009AD3F8E020F5
:101D700042F01002C3F8E020D3F8E02002F0100295
:101D80000192019AD3F8E02042F04002C3F8E0202B
:101D9000D3F8E02002F040020292029AD3F8E02049
:101DA00042F00802C3F8E020D3F8E02002F0080275
:101DB0000392039AD3F8E02042F48072C3F8E02043
:101DC000D3F8E02002F480720492049AD3F8E02061
:101DD00042F08002C3F8E020D3F8E02002F0800255
:101DE0000592059AD3F8E02042F02002C3F8E020E3
:101DF000D3F8E02002F020020692069AD3F8E02001
:101E000042F00402C3F8E020D3F8E0300C9403F071
:101E1000040307930323079A0B93CDE9080108A94C
:101E2000274807F0E1FA48F23712022308A92548AB
:101E30000C94CDE90823CDE90A6707F0D5FA4CF2F6
:101E40000372022308A920480C94CDE90823CDE9A8
:101E50000A6707F0C9FA40F2FF62022308A91B488B
:101E60000C94CDE90823CDE90A6707F0BDFA4FF6D7
:101E70000C72022308A916480C94CDE90823CDE979
:101E80000A6707F0B1FA4FF63F02022308A911488A
:101E90000C94CDE90823CDE90A6707F0A5FA2022C2
:101EA000022308A90A480C94CDE90A67CDE9082362
:101EB00007F09AFA0EB0D0BDE008002400440258A2
:101EC0000010025800180258000C02580020025856
:101ED000001C0258001402582DE9F04FDFF810845E
:101EE00006460D46144608F118002DED028B89B008
:101EF00000AF03F099F8D8F8183073B3D8F81C3055
:101F0000D8F80490002B43690BBF4FF0080A4FF03C
:101F1000100A4FF0020B4FF0040BB9F1000F2AD05A
:101F2000A200EA46012B02F1070222F00702ADEB04
:101F3000020D6846ADEB020D694600F03F81022BB1
:101F400000F0D680002B6FD02246C847D5462437F4
:101F5000BD46BDEC028BBDE8F08FD8F81C30002BDD
:101F6000F5D0D8F804904FF0080A4FF0020B4369FF
:101F7000B9F1000FD4D1FB61D8F80030BB61002B60
:101F8000E5D0D54803F0C2F86B46BBF1020F78618B
:101F900008EE103AFB6900F083816A465146A2EBD5
:101FA000C40295466200EA46B2FBFBF2AAEBC4000B
:101FB00085460AEB8200EE46F861ADEB010DF8694B
:101FC0000EEB820CC7F810C0EC46ADEB010D00EB38
:101FD0008201CCF80400CCF8081001EB82013869CA
:101FE000E946CCF80C1000EB8201CCF800A001EB24
:101FF0008202C9E900E0C9E90212012B00F0648302
:10200000022B00F06C82002B00F0808162084946B0
:102010006046BB69984718EE103A24379D46BD4686
:10202000BDEC028BBDE8F08F002C8DD01A46D8EDA8
:102030000C6A9FEDB27A8446331D36F922E00CF12A
:10204000080C07EE90EA33F922E00232F8EEE77A64
:10205000944267EE877A67EEA67A4CED027A07EE35
:1020600090EAF8EEE77A67EE877A67EEA67A4CEDAB
:10207000017AE2D8F9612246C847984ED8ED0D6A38
:102080000020F9692B1D9FED9E7A9FED9E6ADFED82
:102090009E5A22E0F4EEC67AF1EE10FAC0F2C8843D
:1020A00047F6FE72D1ED017A45F8202066EEA77A58
:1020B000F4EEC77AF1EE10FA40F2F080F4EEC67A50
:1020C000F1EE10FAC0F2D58447F6FE7243F82020F4
:1020D0000230083184427FF639AFD1ED007A66EEE6
:1020E000A77AF4EEC77AF1EE10FAD3D83246D9E7E0
:1020F000002C3FF429AFD8ED0C6A84469FED787A26
:102100000022331D8E4656F822100CF1080C07EE03
:10211000901A53F822100232F8EEE77A944267EEF2
:10212000877A67EEA67A4CED027A07EE901AF8EEFF
:10213000E77A67EE877A67EEA67A4CED017AE2D805
:1021400071462246C7F81CE0C847664ED8ED0D6AB6
:102150000020F9692B1D9FED6A7A9FED6A6ADFF80E
:1021600094C120E0F4EEC67AF1EE10FAC0F2798460
:102170003246D1ED017A45F8202066EEA77AF4EEDA
:10218000C77AF1EE10FA40F28780F4EEC67AF1EEEB
:1021900010FAC0F25E84324643F820200230083143
:1021A00084427FF6D3AED1ED007A66EEA77AF4EEE4
:1021B000C77AF1EE10FAD5D86246DAE7002C3FF480
:1021C000C3AED8ED0C6A86469FED477A4FF0000CFF
:1021D000331D56F82C200EF1080E82F40002A2F5F1
:1021E000000207EE902A53F82C200CF1020CF8EEB6
:1021F000E77A82F400026445A2F5000267EE877A6E
:1022000067EEA67A4EED027A07EE902AF8EEE77AAC
:1022100067EE877A67EEA67A4EED017AD9D8F96132
:102220002246C847314ED8ED0D6A0020F9692B1DB2
:102230009FED337A9FED336ADFF8BCC01FE0F4EE08
:10224000C67AF1EE10FAC0F2FC833246D1ED017A83
:1022500045F8202066EEA77AF4EEC77AF1EE10FA80
:1022600018D9F4EEC67AF1EE10FAC0F2DA833246EB
:1022700043F820200230083184427FF667AED1ED6A
:10228000007A66EEA77AF4EEC77AF1EE10FAD6D8A5
:102290006246DBE76246EBE762467DE7324615E7DA
:1022A000A100D6466208073121F00701ADEB010D10
:1022B000EA46ADEB010D6946ADEB0E0D0AEB82006F
:1022C000EC46ADEB0E0D01EB8202F861E946CCE97C
:1022D00000A0C9E9001290E6380900240280FFFF3F
:1022E000000000300082FF7F0000003482FF7F008A
:1022F0001C090024007E00807E0080FF0000003862
:1023000004FF7FBF04FF7F3F00FEFF46002C00F06C
:10231000C982BBF1020FD8F8242000F0FA82796953
:10232000C7F8049002EB810E5FED0C5A8A00DCF8CE
:1023300008100EF104007A611A46DCF80C303B619B
:10234000331DD7F810903D61FD69C7E902CB8C467B
:10235000834636F92210D8ED0C7A06EE101A33F9BE
:10236000221006EE901A3EF92210B8EEC66A07EE69
:10237000101AF8EEE66A3BF92210B8EEC77A26EE9C
:10238000256A66EEA56A27EE257A26EE276A66EEAE
:10239000A76A27EE277A07EE901A51080232F8EE64
:1023A000E77A0AEB8100944280ED006A05EB810038
:1023B00067EEA57AC0ED006A0CEB810009EB8101A4
:1023C00080ED007A98ED0C7A67EE877AC1ED007A9D
:1023D000BFD8D7F804903D69D7E902CB60466208C0
:1023E000BB6949469847D8F82C307A69D8ED0D6A10
:1023F0001A441FED3D7A1FED3D6A2B1D904602F1F8
:10240000040A5FED3F5A0022A84ED9E900EC51E0E2
:10241000F4EEC67AF1EE10FAC0F2C78247F6FE700B
:1024200045F822000CEB0100D0ED007A66EEA77AA9
:10243000F4EEC77AF1EE10FA4BD9F4EEC67AF1EE6B
:1024400010FAC0F2BA8247F6FE70BBF1020F43F8F1
:1024500022002BD0D9F808000844D0ED007A66EEAF
:10246000A77AF4EEC77AF1EE10FA36D9F4EEC67A0E
:10247000F1EE10FAC0F2CD8247F6FE7048F8220065
:10248000D9F80C000144D1ED007A66EEA77AF4EE9B
:10249000C77AF1EE10FA1ED9F4EEC67AF1EE10FA10
:1024A000C0F2AF8247F6FE714AF82210023294421F
:1024B0007FF6B1AD51080EEB81008900D0ED007AB6
:1024C00066EEA77AF4EEC77AF1EE10FAA0D830469D
:1024D000A6E73046B9E73146E6E73046CEE7002CBE
:1024E00000F0E081BBF1020FD8F8243000F0E18168
:1024F0007A69DCF8081003EB820EC7F804909300A9
:10250000DFED6B5A0EF1040000227B61DCF80C3029
:102510003B61331DD7F810903D61FD69C7E902CBDF
:102520008C46834656F82210D8ED0C7A07EE101A26
:1025300053F82210B8EEC76A07EE101A5EF82210A0
:10254000F8EEC76A07EE101A26EE256A5BF822102D
:10255000B8EEC77A66EEA56A26EE276A27EE257AD8
:1025600066EEA76A27EE277A07EE901A5108023224
:10257000F8EEE77A0AEB8100944280ED006A05EB01
:10258000810067EEA57AC0ED006A0CEB810009EBD3
:10259000810180ED007A98ED0C7A67EE877AC1EDC3
:1025A000007ABFD8D7F804903D69D7E902CB6046DE
:1025B0006208BB6949469847D8F82C307A69D8ED4B
:1025C0000D6A1A449FED3E7A9FED3E6A131D9246B6
:1025D000DFF8E4C00022FB612B1D364ED9E9008EE6
:1025E0004EE0F4EEC67AF1EE10FAC0F2FC8130460D
:1025F00045F822000EEB0100D0ED007A66EEA77AD6
:10260000F4EEC77AF1EE10FA49D9F4EEC67AF1EE9B
:1026100010FAC0F2EF813046BBF1020F43F82200FE
:102620002AD0D9F808000844D0ED007A66EEA77ADF
:10263000F4EEC77AF1EE10FA35D9F4EEC67AF1EE7F
:1026400010FAC0F2C98130464AF82200D9F80C00CD
:102650000144D1ED007A66EEA77AF4EEC77AF1EE86
:1026600010FA1ED9F4EEC67AF1EE10FAC0F2AD817E
:102670003146F86940F82210023294427FF6CBAC22
:10268000510808EB81008900D0ED007A66EEA77A48
:10269000F4EEC77AF1EE10FAA3D86046A8E76046D8
:1026A000BAE76146E5E76046CEE700BF0280FFFF7C
:1026B000000000300082FF7F007E008000000034B8
:1026C00004FF7FBF04FF7F3F002C00F0EB807A699E
:1026D0000021D8F82430C7F8109003EB820ED7F809
:1026E0001C909300FD610EF104021FED0C6A7B61EA
:1026F000331D154656F821204808D8ED0C6ABBF169
:10270000020F82F40002A2F5000207EE902A53F8AD
:10271000212082F40002B8EEE77AA2F5000227EE4B
:10272000067A07EE902A0AEB8002F8EEE77A27EEA7
:10273000267A67EE867A82ED007A09EB80024FEA0C
:10274000800067EEA67AC2ED007A27D05EF82120DD
:1027500082F40002A2F5000207EE902A55F821202B
:1027600082F40002B8EEE77AA2F5000227EE067ABC
:1027700007EE902ADCF80820F8EEE77A024427EE0C
:10278000267A67EE867A82ED007A98ED0C7ADCF88C
:102790000C2067EE877A0244C2ED007A02318C4247
:1027A000A8D8D7F8109060466208BB694946FD6911
:1027B0009847D8F82C307A69D8ED0D6A1A441FED85
:1027C000407A1FED406A131D9246DFF8C4C2002212
:1027D000FB612B1DAB4ED9E9008E4EE0F4EEC67ABC
:1027E000F1EE10FAC0F2C580304645F822000EEB3B
:1027F0000100D0ED007A66EEA77AF4EEC77AF1EE2A
:1028000010FA49D9F4EEC67AF1EE10FAC0F2BF80A0
:102810003046BBF1020F43F822002AD0D9F8080055
:102820000844D0ED007A66EEA77AF4EEC77AF1EEAE
:1028300010FA35D9F4EEC67AF1EE10FAC0F2AE8095
:1028400030464AF82200D9F80C000144D1ED007A54
:1028500066EEA77AF4EEC77AF1EE10FA1ED9F4EE1E
:10286000C67AF1EE10FAC0F28B803146F86940F872
:102870002210023294427FF6CEAB510808EB810061
:102880008900D0ED007A66EEA77AF4EEC77AF1EE11
:1028900010FAA3D86046A8E76046BAE76146E5E7C4
:1028A0006046CEE7224649466046BB699847FFF737
:1028B000B2BBC7F810B0002298ED0C6A331DDFEDF3
:1028C000726AD7F81CB0786956F8221007EE901A91
:1028D00053F82210B8EEE77A07EE901A5108023248
:1028E000F8EEE77A27EE267A0AEB810E94420BEB9C
:1028F000810167EEA67A27EE067A67EE867A8EED7C
:10290000007AC1ED007ADFD88300D7F810B07B6180
:102910004DE61A46C7F810B098ED0C6A331DDFED8E
:102920005B6AD7F81CB0786936F9221007EE101AE6
:1029300033F9221007EE901AB8EEC77A5108023226
:10294000F8EEE77A27EE267A0AEB810E94420BEB3B
:10295000810167EEA67A27EE067A67EE867A8EED1B
:10296000007AC1ED007ADFD88300D7F810B07B6120
:1029700034E5F0EE675AFEEEE45A15EE900A34E7BD
:10298000F0EE675AFEEEE45A15EE901A6EE7F0EE9E
:10299000675AFEEEE45A15EE900A3AE7F0EE675AEF
:1029A000FEEEE45A15EE900A4BE767EEA57AFDEECF
:1029B000E77A17EE900A00B232E567EEA57AFDEEEF
:1029C000E77A17EE900A00B23FE5F0EE675AFEEEA6
:1029D000E05A15EE901A4CE6F0EE675AFEEEE05A19
:1029E00015EE900A30E6F0EE675AFEEEE05A15EE6C
:1029F000900AFDE5F0EE675AFEEEE05A15EE900AF9
:102A00000AE667EEA57AFDEEE77A17EE901A09B2AC
:102A10004AE567EEA57AFDEEE77A17EE900A00B276
:102A20002CE5F0EE675AFEEEE45A15EE902A1FE40C
:102A300067EEA57AFDEEE77A17EE902A12B2FFF75D
:102A400031BBF0EE675AFEEEE45A15EE902AFFF71E
:102A5000FDBBF0EE675AFEEEE05A15EE902AFFF746
:102A60009BBBF0EE675AFEEEE05A15EE902AFFF798
:102A700080BB67EEA57AFDEEE77A17EE902A12B2D8
:102A8000FFF724BB82FF7F00000000300000003809
:102A90007E0080FF30B5184C154685B0046004F107
:102AA000080EEC460FC98EE80F00D4ED047AF5EE5F
:102AB000C07A8CE80F00F1EE10FA1ADDB7EE006A6A
:102AC00094ED057A27EE277AC6EE276A84ED0D7A13
:102AD000C4ED0C6A6DB1204640F8185F02F0A4FA0C
:102AE000064903690020064A2162A262E36005B03C
:102AF00030BD012005B030BD1C090024C0200030CD
:102B0000C000003000680830704700BF006818300F
:102B100002F0EABA30B5046883B00D46E3694BB100
:102B2000A3680020E26A616A9B00009004F11C0027
:102B300002F07CFAA3680748A26A9B00216A009011
:102B400004F1180002F072FA0020C4E9005003B04A
:102B500030BD00BFD91E000810B4074B4FF07E51A6
:102B600030240022032019619C60D8605DF8044B7A
:102B70005961C3E9062270471C090024F6EE007A69
:102B80009FED166A20EE207A0160F7EE006A80ED74
:102B9000036A80ED020A27EE277AC6EE877AF4EE02
:102BA000E67AF1EE10FA11DDF0EE667A4FF07E5122
:102BB0004FF0000C02760022C0ED017AC0F814C07C
:102BC000016143768276C0ED070A7047F4EEC67A5B
:102BD000F1EE10FAEAD5F0EE467AE7E700000000E1
:102BE000DFED187AB6EE007AF7EE006A9FED166A0E
:102BF00060EE277A016080ED036A80ED020A67EEDD
:102C0000877A86EEA77AB4EEE67AF1EE10FA10DD56
:102C1000B0EE667A4FF0804C4FF07C514FF48072EA
:102C2000012380ED017AC0F810C0416102838376F0
:102C30007047B4EEC67AF1EE10FAEBD5B0EE467AF4
:102C4000E8E700BF6F12033B000000000268037E4C
:102C5000128807EE902AFBEEC87A1BB1B7EE007A15
:102C600077EE677AD0ED056A90ED047A77EEE67A32
:102C7000437E67EE877A0BB1F1EE677A90ED030A37
:102C800090ED017A77EEC07AA7EE270A80ED030A6D
:102C9000704700BF30B585B004460025ADF80C1074
:102CA000ADF80820ADF8043003F054FABDF80C205C
:102CB0004FF48073206004F118002283BDF80820CF
:102CC0006383E383A283257101F05EF804F11C00A5
:102CD00001F05AF89FED060A019904F1080000F08E
:102CE00017F94FF6FF736562238405B030BD00BF4E
:102CF00000000000F8B5044603F02CFA0026236813
:102D00002671834205D104F10800BDE8F84000F0C7
:102D100019B9012794F82050206004F11800BD4033
:102D2000277101F00DF96DB2284394F82150BD4090
:102D300084F8200004F11C0001F002F994F820301E
:102D40006DB2666203F003032843022BC0B284F81D
:102D5000210009D000F003000228D4D1002BD2D1E9
:102D60004FF0FF336362CEE78307CCD16762CAE7D7
:102D700070B584B0002504461646ADF80C102B46FD
:102D80002A460399009500F00FFFA582A67504B0AE
:102D900070BD00BF704700BFF8B5134F3C687F2C73
:102DA00007D98023114A42F224411C463B60A2F815
:102DB0007E100F4D2B68012B0AD90C4E0D4D22466B
:102DC0003146284600F074F90028F8D13860F8BD83
:102DD00022460649074800F06BF90028F7D12B6816
:102DE000386001332B60F8BD580900245C090024C9
:102DF00054090024DC09002430B4154C2168F1B1D9
:102E00004B1E144DE81810F801298C4619460A2A61
:102E100001D00D2A02D14BB1013BF4E70CF10203C2
:102E20007F2B10D98023236030BC704701220223FE
:102E300023600D200A236854AB5430BC7047012234
:102E40000223044DF4E70CF101026146F0E700BFF4
:102E5000580900245C09002410B5094C02460B46B1
:102E6000084821680844C1F1800111F0C9FB2368BA
:102E700018442060FFF7C0FFFFF78EFF10BD00BFB2
:102E8000580900245C0900240FB400B583B004A9DC
:102E900051F8040B0191FFF7DFFF03B05DF804EB7D
:102EA00004B0704710B5044600210A4800F07AF8D3
:102EB000002C094B14BF0222002208481A60FFF7B9
:102EC000E3FF0748FFF7E0FF0A20BDE8104003F0EA
:102ED00043B900BFDC090024540900242C5A01081E
:102EE0003C5A0108064A0749074808B511F0E4F8BA
:102EF000034A04490548BDE8084011F0DDB800BFA9
:102F000000000024952D0008DC090024E0090024BD
:102F100070B5044682B0C1F30726CDB2ADF80410F7
:102F200003F018F94FF480724FF001232060A01DC8
:102F3000A571A280E671A36002B0BDE8704000F008
:102F400023BF00BF38B5044603F004F9002223680C
:102F50002271834210D00122A57AE37A9540206045
:102F60002271A01D6DB243B900F0EAFF40B22843C0
:102F7000C0B27F28A0720AD038BD00F0E1FFB0FADD
:102F800080F040092843C0B27F28A072F4D103F03A
:102F9000E1F807EE900AF8EE677AC4ED037A38BDDF
:102FA000704700BF012910B506D0022915D051B1D4
:102FB000BDE8104008F0BAB90A46344834490DF06B
:102FC000F7FCE8B1FEE7334B0A46334C334934484B
:102FD0001C600DF0EDFC68B1FEE701222C492B4886
:102FE0000DF0E6FC00B1FEE72E4928480DF002FD89
:102FF000C0B1FEE72B492A480DF0FCFC60B1FEE7AA
:10300000284922480DF0F6FC00B1FEE726491F488A
:103010000DF07EFC08B3FEE7244921480DF078FC52
:10302000A8B1FEE7204919480DF072FC00B1FEE797
:1030300016480DF0F5FC024640B9164B164C1749E0
:1030400017481C600DF0B4FC68B1FEE7FEE71448B9
:103050000DF0E6FC0028ABD0FEE70C480DF0E0FCDC
:103060000028A5D0FEE70F490D480DF0C3FC00B1C4
:10307000FEE70E490A480DF04BFC00B1FEE7084898
:103080000DF0CEFC002893D0FEE700BF800C00249A
:10309000E40100241C0F0024A12F0008C801002413
:1030A000E40900244C020024A80100249801002413
:1030B000084691B208B503F027FB003818BF01207D
:1030C00008BD00BF014807F00FBC00BFB045002499
:1030D000014807F009BC00BFB0450024014807F0D3
:1030E00003BC00BFB045002400B583B04FF0000E14
:1030F0004FF0030C4274ADF80410BDF8043080F8B2
:1031000010E0A0F802C0038003B05DF804FB00BF2C
:103110002DE9F04FDFF81C8300258DB0C04C037003
:1031200008F140034260074601920E4620222946DC
:103130004046C4F86831C4F86481CDE90255CDE950
:103140000455CDE90655CDE90855CDE90A5511F0EC
:10315000ABF82022294604F5A170C4F83151C4F817
:103160003551C4F83951C4F83D5111F09DF8019B17
:1031700084F8485284F830317A68002A6AD02B46A5
:1031800004F59871454606F1100A9E46F01856F867
:1031900003B0E2180EF1010ED0F80CC0D0F8049084
:1031A000D0F8088044F803B0C2F80CC04FF0000C0F
:1031B000C2F80490C2F80880008A25F802CB108279
:1031C0001AF8032001F8012F002A70D07A684FF016
:1031D00001001233724584F84802D7D84FF4802298
:1031E00090489DF8043008214FF000084FF0000986
:1031F000C4F884310023C4E95B020122C4F87431AD
:1032000084F88031C4E95E2194F84812C4E96489E5
:10321000A9B3C4F89821002284F8813184F8883158
:103220003B78C4E96722002B38D00122002001211D
:10323000013B84F8A421C4E96C01082B30D8DFE8F5
:1032400013F0BD00C200C700CC00D100D600DB00E7
:10325000E100E8009DF804300121C4F87421C4F8AD
:1032600084314FF4802384F880216E4AC4E95B23C3
:1032700008230022C4E95E130023C4E96423012368
:10328000002284F88131002384F888310323C4F8B4
:1032900098313B78C4E96722002BC6D184F8A43169
:1032A000614804F06DFB034638B1FFBEFEE77A6863
:1032B000123372453FF66AAF90E702A95A4802936B
:1032C00004F0BCFC8246002876D1042240F2FF7153
:1032D0000A90CDE9081294F83021002A00F0F3801A
:1032E0004FF006080AEBCA034FEACA0904EB43038E
:1032F0005B7C072B07D8DFE803F0595C5653504D31
:103300004A04072307930FFA8AF6D14406EBC60650
:1033100004EB490904EB46077500384600F034FD1C
:1033200099F81030042B00F3AA80022B00F3BD8023
:1033300000F0B98004EB0A03002283F8202114F87E
:103340001630002B78D0022B00F08A80012B40F041
:10335000B2807B78012B00F0B080002B334B18BF7C
:10336000002305A93048CDE9053803F035FF0028D2
:1033700040F0AC800AF1010A94F830315FFA8AFA21
:10338000534540F2A0802A4B53F82A80AAE706232F
:103390000793B8E705230793B5E704230793B2E73C
:1033A00003230793AFE702230793ACE700230793B8
:1033B000A9E701230793A6E7FFBEFEE70322402308
:1033C000C4E96A236CE707226023C4E96A2367E73C
:1033D0000F228023C4E96A2362E71F22A023C4E9E5
:1033E0006A235DE73F22C023C4E96A2358E77F22AE
:1033F000E023C4E96A2353E7FF224FF48073C4E952
:103400006A234DE740F2FF124FF49073C4E96A2338
:1034100046E740F2FF324FF4A073C4E96A233FE766
:10342000280F002400200240941000240002B02540
:103430004C5A0108C04000307B78062B37D0072B50
:103440003DD0022B4AD0032B4AD0002B4CD0012B6D
:1034500048D0042B4AD0052B254B18BF002380E70A
:103460007B78042B25D0052B2BD08BB3012B31D0AF
:10347000022B31D0032B1F4B18BF002371E703230E
:10348000043504EB0A0B4FF0000925448BF820317A
:10349000284609F1010900F077FC9BF8203104353A
:1034A0004B45F5DC4BE70123EAE70223E8E7124B43
:1034B00057E7124B55E7002353E7114B51E7114BE8
:1034C0004FE7114B4DE70DB0BDE8F08FFFBEFEE7B3
:1034D0000E4B46E70E4B44E70E4B42E70E4B40E7E0
:1034E0000E4B3EE70E4B3CE70E4B3AE70E4B38E7F0
:1034F0000000B84F002090360800900C1000C0105B
:103500002000F0148000501D000180210004002ADA
:103510000008302E001060320040C03A0080F03EBB
:1035200000005247000021430000844B38B5094C8D
:1035300040F2FF724FF0011104F5B675284604F011
:103540002BFB94F83021D4F864112846BDE83840AC
:1035500004F096B8280F0024034B0F29D3F8640118
:1035600098BF00EB41007047280F0024214B0268F0
:103570009A4200D07047204A00232048D2F8D81041
:1035800030B51F4C41F0200183B0C4F8D0010920B0
:1035900004F5E875C4E975034FF48060C2F8D810EB
:1035A000D2F8D8204FF40061C4E9773094F848028B
:1035B00002F02002C4F8E4114FF400519842019245
:1035C0002846C4F8E811C4E97C33019B14BF0023EA
:1035D0004FF48073C4F8EC3104F02EFF08B1FFBE45
:1035E000FEE704F5B673C4F8B851C4F8083203B066
:1035F00030BD00BF0020024000440258400002409D
:10360000280F0024014805F09DBB00BFF8100024DE
:1036100002682DE9F84F4B4B9A4201D0BDE8F88F74
:10362000494D95F84832002BF8D095F83031002BF1
:1036300077D0002405F10C0905F5A17605F59877FA
:10364000A04613E003F0010117F811BCA9F108002E
:1036500000F084FCBBF1010F25D895F8303101341E
:1036600009F112090236A2B293422BD917F8012FA1
:10367000002AF4D0D5F864310021327833F81400F0
:10368000D5F8683103EB041323F8120033880133B3
:103690009BB233805FFA83FA3A789A42D2D88A464C
:1036A000A6F80080D0E7CAF34001A9F1040000F0B9
:1036B00055FCBBF1020FCAF38001CED0484600F0A2
:1036C0004DFCCAE7002395F8480220490922984298
:1036D000C5F8D8314FF48060C5F8D011C5F8D421B1
:1036E0004FF400614FF40052C5F8DC3108BF4FF4CD
:1036F0008073C5F8E821C5E9780100221448C5E9BE
:103700007B32C5F8F42104F097FE08B1FFBEFEE756
:1037100095F83021D5F864110E48BDE8F84F03F054
:10372000AFBF0A4909224FF48060C5F8D831C5E916
:1037300074124FF400614FF40052C5E97730C5E9C7
:103740007912DAE700200240280F002440000240EE
:10375000F810002494100024704700BF4F4B0268FB
:103760009A4200D070474E4BD3F8E81030B541F084
:1037700000514C4C85B0D4F84821C3F8E810D3F878
:10378000E81001F0005101910199D3F8E01041F0E7
:103790000101C3F8E010D3F8E03003F00103029315
:1037A000029B32F002033DD0013A012A6BD9D4F8D2
:1037B0004C31012B0AD000223620114604F0B2FA17
:1037C000362005B0BDE8304004F0EABAD4F84831FC
:1037D00033F0020234D0013B012BECD844224023C9
:1037E0003149324DC4F88C1000212846C4F8B0107D
:1037F000C4E9242300224FF48063C4E926234FF454
:1038000000624FF40053C4E928234FF480724FF450
:103810008033C4E92A2304F00FFE80B9E560C4F8C0
:10382000C440C8E74FF48062032303A8ADF80C201E
:103830008DF80E3000F0A8FAD4F84821B4E7FEE77E
:103840001B4BA2634322636140231A4DC4E9062344
:1038500000224FF480632846C4E908234FF4006235
:103860004FF40053C4E90A234FF480724FF48033BD
:10387000C4E90C2304F0E0FD20B9D4F84831A56078
:10388000E464A8E7FEE74FF4A062032303A8ADF8C1
:103890000C208DF80E3000F077FA88E700740040B5
:1038A0000044025878110024280402400412002425
:1038B000100402408C110024014805F043BA00BFF7
:1038C0008C110024014805F03DBA00BF0412002409
:1038D00010B5054C204604F0DFFB04F58270BDE80E
:1038E00010400BF0FDBC00BF78110024164BD3F83C
:1038F0004821D3F85811022A4FEA510130B583B05C
:103900000CD088B2D3F85C21D3F8644102EB4003B9
:1039100000930CB16846A04703B030BDD3F86021D6
:10392000002AF9D088B2D3F85C41D3F8645104EB93
:10393000400402EB4002CDE90042002DECD0684685
:10394000A84703B030BD00BF78110024134BD3F853
:103950004821022A10B582B00CD0D3F85C11D3F8FC
:103960006421009122B1D3F8581168464908904764
:1039700002B010BDD3F86021002AF9D0D3F85C1151
:10398000D3F86441CDE90012002CF1D0D3F85811DE
:1039900068464908A04702B010BD00BF7811002456
:1039A000094BD3F84821022A0DD000B5D3E95812AB
:1039B00083B0019122B1D3F8581101A8490890476A
:1039C00003B05DF804FB7047781100240B4BD3F86B
:1039D0004821022A10D0D3F8581110B5D3E9582441
:1039E000C1F34F0382B0490802EB430301930CB1CA
:1039F00001A8A04702B010BD704700BF7811002495
:103A000030B58C463A4C3B4D8DB0046004F5A27E37
:103A1000BCE80F00AEE80F00DCF80030204625605F
:103A2000CEF8003004F04AFA0023D4F84C51039346
:103A3000C5B11622012D049217D00022D4F85411DA
:103A4000D4F848319142CDE9062218BF02220592EE
:103A500033F0020235D0013B012B3CD9002528462A
:103A60000DB030BD02230493E7E7234A0093C4F866
:103A70000C31C4F81431C4F80421C4F81C31CDE968
:103A8000013302F005FDD4F844314BF68032C4F81E
:103A90000851002B08BF1346B0FBF3F304F5827006
:103AA000C4F810310BF086FA0028D8D120230290F8
:103AB000694604F5827000930BF0CAFC0028BCD064
:103AC000CDE703A90A4804F01BFB78B9D4F84831C4
:103AD000013B012BC2D8102203A9054804F010FBBA
:103AE000051E18BF012528460DB030BD0125B6E7DB
:103AF00078110024007400400010004070B5046884
:103B00001D4682B01046D4F84C31012B03D0D4F8B6
:103B10004831022B24D1D4F85031069A002BC4F836
:103B20005C11C4F864212B460CBF08260026C4F89B
:103B300060010A46C4F8585100212046009604F05E
:103B4000D3F9D4F860212B4610212046009604F0CA
:103B5000CBF904F582700BF0CDFA002002B070BDF5
:103B6000012002B070BD00BF10B50468D4F84C311C
:103B7000012B09D1D4F8483133F0020106D0013BC2
:103B8000012B0BD9002010BD012010BD204604F0F0
:103B900037FAD4F84831013B012BF3D810212046E5
:103BA00004F02EFA002010BD10B592B0ADF804104C
:103BB0000180C9B2149C0B29C460C0E901233FD025
:103BC00090F801C0BCF10F0F3AD8022A3FD0032A67
:103BD00002D0012A00D000220E92012B02D0022B2B
:103BE00018BF0023022C0F932CD0032C2AD0012CB9
:103BF00028D000230A29109327D85C4A02EB81229F
:103C000002610A2914D8DFE801F0A39587796B5D7A
:103C10004F4133250600564BD3F8E01041F4806144
:103C2000C3F8E010D3F8E03003F480630C930C9BEE
:103C300001230DA9104603FA0CF30D9305F0D4FBF4
:103C400012B010BD0A291094D7D90022D8E711224A
:103C50000E92C2E7464BD3F8E01041F40071C3F86E
:103C6000E010D3F8E03003F400730B930B9BDFE715
:103C70003F4BD3F8E01041F48071C3F8E010D3F863
:103C8000E03003F480730A930A9BD1E7384BD3F8F2
:103C9000E01041F08001C3F8E010D3F8E03003F009
:103CA00080030993099BC3E7314BD3F8E01041F03F
:103CB0004001C3F8E010D3F8E03003F0400308936C
:103CC000089BB5E72A4BD3F8E01041F02001C3F878
:103CD000E010D3F8E03003F020030793079BA7E739
:103CE000234BD3F8E01041F01001C3F8E010D3F8F3
:103CF000E03003F010030693069B99E71C4BD3F8C2
:103D0000E01041F00801C3F8E010D3F8E03003F010
:103D100008030593059B8BE7154BD3F8E01041F0A2
:103D20000401C3F8E010D3F8E03003F00403049377
:103D3000049B7DE70E4BD3F8E01041F00201C3F87D
:103D4000E010D3F8E03003F002030393039B6FE726
:103D5000074BD3F8E01041F00101C3F8E010D3F8AD
:103D6000E03003F001030293029B61E70000025878
:103D70000044025801230A464178006903FA01F120
:103D800089B205F03FBD00BF8378022B30B50446F1
:103D90008FB037D0032B33D0012B31D000230A93BF
:103DA000E378012B2AD0022B28D000230B93002389
:103DB00020460C9303F08AF80546204603F08EF85F
:103DC00023780990082B13D8DFE803F01F324558F9
:103DD0006B7E91A40500594BD3F8E02042F4807229
:103DE000C3F8E020D3F8E03003F480730893089B15
:103DF00009A9284605F0F8FA0FB030BD0B93D6E7B5
:103E00000A93CDE711230A93CAE74C4B09A9284628
:103E1000D3F8E02042F00102C3F8E020D3F8E0300C
:103E200003F001030093009B05F0DEFA0FB030BDF4
:103E3000424B09A92846D3F8E02042F00202C3F819
:103E4000E020D3F8E03003F002030193019B05F07A
:103E5000CBFA0FB030BD394B09A92846D3F8E02082
:103E600042F00402C3F8E020D3F8E03003F004038A
:103E70000293029B05F0B8FA0FB030BD2F4B09A991
:103E80002846D3F8E02042F00802C3F8E020D3F837
:103E9000E03003F008030393039B05F0A5FA0FB08D
:103EA00030BD264B09A92846D3F8E02042F0100285
:103EB000C3F8E020D3F8E03003F010030493049B30
:103EC00005F092FA0FB030BD1C4B09A92846D3F873
:103ED000E02042F02002C3F8E020D3F8E03003F005
:103EE00020030593059B05F07FFA0FB030BD134BFF
:103EF00009A92846D3F8E02042F04002C3F8E020A8
:103F0000D3F8E03003F040030693069B05F06CFA0B
:103F10000FB030BD094B09A92846D3F8E02042F084
:103F20008002C3F8E020D3F8E03003F08003079369
:103F3000079B05F059FA0FB030BD00BF004402588E
:103F400038B5054602F0C2FF0446284602F0C6FF17
:103F500001462046BDE8384005F04EBC70B5064627
:103F60000D4602F0B3FF0446304602F0B7FF2A1EAA
:103F70000146204618BF0122BDE8704005F042BC52
:103F80000023122270B586B0CDE9022304930368A2
:103F9000032B01D804230593061D841D304602F02F
:103FA00095FF0546304602F099FF034601A92846D1
:103FB000019305F019FA204602F088FF03462046D7
:103FC0001C4602F08BFF01A903462046019305F031
:103FD0000BFA06B070BD00BF634A0368934210B588
:103FE0008CB028D0614A934258D0614A934200F085
:103FF0009480604A934201D00CB010BD5E4C5F4883
:10400000D4F8E03043F00203C4F8E030D4F8E030F4
:1040100003F002030A930A9BFFF7B2FFD4F8F430CF
:1040200043F08003C4F8F430D4F8F43003F0800394
:104030000B930B9BE0E7504C5148D4F8E03043F031
:104040000203C4F8E030D4F8E03003F00203019337
:10405000019BFFF795FFD4F8E83000221F2043F4BE
:1040600000131146C4F8E830D4F8E83003F4001324
:104070000293029BD4F8D83043F00103C4F8D8303F
:10408000D4F8D83003F001030393039B03F04AFEF6
:104090001F200CB0BDE8104003F082BE364C3948FA
:1040A000D4F8E03043F08003C4F8E030D4F8E030D6
:1040B00003F080030493049BD4F8E03043F0020340
:1040C000C4F8E030D4F8E03003F002030593059B18
:1040D000FFF756FFD4F8E8300022212043F4800394
:1040E0001146C4F8E830D4F8E83003F480030693AE
:1040F000069BD4F8D83043F00103C4F8D830D4F884
:10410000D83003F001030793079B03F00BFE212037
:104110000CB0BDE8104003F043BE1B48FFF730FF72
:10412000154B00224820D3F8E840114644F400041F
:10413000C3F8E840D3F8E84004F400040894089C6D
:10414000D3F8D84044F00104C3F8D840D3F8D830AD
:1041500003F001030993099B03F0E4FD48200CB030
:10416000BDE8104003F01CBE005400400058004061
:10417000005C0040001C0058004402586C150024EC
:10418000E4120024BC130024941400242DE9F0430D
:104190001A4B87B000254FF010099E46EC46184B8D
:1041A000FF22E04667461A700EF118060EF1300441
:1041B000CDE90055CDE90255ADF80090BCE80F00FF
:1041C000CDE90455AEE80F009CE803000095ADF87A
:1041D00000908EE80300B8E80F000FC69CE80300CB
:1041E0000095ADF8009086E803000FCF0FC49CE85F
:1041F000030084E8030007B0BDE8F0831800002442
:10420000E012002410B5EFF3108472B6084B1A7850
:10421000120602D504B962B610BD1B78D822054833
:104220005BB202FB0300143004F08CFDF2E700BF28
:10423000E0120024E4120024014806F03BBA00BF5B
:1042400070130024014806F035BA00BF481400245A
:10425000014806F02FBA00BF201500242DE9F043D5
:104260000F68D8243F4D85B007FB04F4032F05EBFE
:104270000403036040DCCB680E46012B3CD84DD0D4
:104280004FF0D808B646DFF8FC9008FB0758BEE8A8
:104290000F00C446ACE80F00DEF800300DF1100E40
:1042A000CCF80030D8F808C099E80F000EE90F00EC
:1042B0000EEB8703BCF1010F53F8103CC8F88C30AB
:1042C00031D0BCF1020F42D0BCF1000F35D0317CAF
:1042D0008C34D823002201202C4403FB07534900CF
:1042E000C3E92602C3F894102046C3E92822C3E993
:1042F0002A2205F011FF18B1012005B0BDE8F083B6
:104300000146204606F0E2F90028F5D10146204694
:1043100006F006FA003818BF0120EEE70B7C103BD0
:10432000672BADD9E8E702F0B1F80F4B98420CBF0C
:104330000E4B0F4BC8F89030C9E702F0A7F80A4BB4
:1043400098420CBF0B4B0C4BC8F89030BFE702F003
:104350009DF8054B98420CBF084B094BC8F89030AC
:10436000B5E700BFE4120024000E27072D0FB03080
:104370003211D0205F4390608A62E030200BA010A1
:104380001A098010B85701082DE9F041046884B07B
:104390001E46E368BDF82C80C3B90D4617468C3421
:1043A000204606F08FF92028FAD120460C9C33468F
:1043B0003A462946CDE901840A9C009406F02CF87F
:1043C000003818BF012004B0BDE8F081012004B01E
:1043D000BDE8F0812DE9F041046884B01E46E36831
:1043E000BDF82C80C3B90D4617468C34204606F024
:1043F00069F92028FAD120460C9C33463A462946D2
:10440000CDE901840A9C009405F0DCFE003818BF59
:10441000012004B0BDE8F081012004B0BDE8F081C6
:10442000044B10221A7483F8E82083F8C02183F823
:1044300098227047E412002430B5002395B04FF461
:104440008071062204460B9306921393CDE90C1358
:10445000CDE90E33CDE9113302F01CF807282BD03B
:1044600004F1100541F2883206A9284607F0AAF89F
:1044700028B10123184684F85C3015B030BD022203
:10448000022306A92846CDE9002310220123CDE905
:10449000022300224FF48003CDE9042305224FF0CC
:1044A000807306926A460F9341F2883307F0F6F95B
:1044B0000028DED115B030BD0323012084F85C3024
:1044C00015B030BD0000000070B50023A4B04FF05F
:1044D00080724FF480750446ADF806300D93CDE937
:1044E00010320122CDE90E53CDE91223CDE9143368
:1044F000002943D0F02300F1100508AEADF80630D6
:10450000C02341F2883231462846089307F05AF812
:1045100028B10123184684F85C3024B070BD41F204
:1045200088320DF10601284607F0B6F80346002848
:10453000EFD105224FF480711E93284616924FF05A
:1045400080721B9321931F9202AA9FED1F7BCDE9DE
:104550001C13CDE922338DED027B9FED1D7B41F2D3
:10456000883316A98DED047B9FED1B7B8DED067BBB
:1045700007F094F90028CCD124B070BD00F11005EB
:1045800008AE612341F2883231462846089307F08D
:1045900019F80028BDD141F288320DF106012846F4
:1045A00007F0F8F80028B4D1BDF80630204623F013
:1045B000780343F04003ADF80630FFF73DFF0028D5
:1045C0009ED0A6E7AFF300800000000001000000CD
:1045D000100000000100000000000000000040008A
:1045E0002DE9F04F00234FF4807501264FF08078BD
:1045F00004462DED028BABB08DF807301393219359
:10460000299314950E96CDF85C80CDE91533CDE94C
:104610001863CDE91A33CDE92253CDE92433CDE92E
:10462000273306231C9301F035FF072808D004F137
:10463000100741F288321CA9384606F0C3FF40B18A
:104640000123184684F85C302BB0BDEC028BBDE82A
:10465000F08F4FF0020A4FF0020B4FF0050941F2C4
:10466000883308AA1CA93846CDF89480CDF87090FC
:104670009FED2D8BCDE908AB4FF0000A4FF4800B76
:104680008DED0A8BCDE90CAB07F008F90028D7D1E6
:1046900041F2883238460EA906F094FF0028CFD1A7
:1046A000402341F288320DF1070138468DF807307A
:1046B00006F0F2FF0028C3D141F288330EA902AA06
:1046C0003846CDF83890CDF85C809FED197B8DEDA4
:1046D000048BCDE906AB8DED027B07F0DFF80346D6
:1046E0000028ADD1CDF870904FF00109CDF894803D
:1046F0004FF00008219308AA29931CA93846229557
:10470000CDE92333CDE9273341F288338DED0A8B90
:10471000CDE90CABCDE9088907F0C0F8002893D0AB
:10472000304684F85C608FE7100000000100000054
:1047300040000000400000002DE9F043624CA3B0AF
:104740000D46046001F0A6FE072800F0A980286845
:1047500023466968AA6807C31E46AB8926F8043B4E
:104760003046257B677B06F00FFFE0B9574B012DE4
:104770004FF00108E061236114BF4FF480134FF440
:104780000003C4E9058893FAA3F3B3FA83F34FF463
:104790008079013BC4F82490C4E90B0030462362C1
:1047A00006F086FE38B10122134684F85C201846D4
:1047B00023B0BDE8F08366230B90139041F288325A
:1047C00006A90693CDE90C90CDE90E00CDE91100C4
:1047D000304606F0F7FE0028E5D1992341F28832F1
:1047E00006A93046069306F0EDFE0028DBD105232E
:1047F0001C9019906A4614934FF08073219014A96D
:104800001D9341F288339FED2A7BCDE91A90CDE9C3
:104810001F008DED007B9FED287B30468DED027BE8
:104820009FED277B8DED047B07F038F80028BAD187
:1048300029462046FFF748FE0028B4D12046FFF75E
:10484000CFFE03460028AED1002FB0D118933046DA
:104850000027002606AA14A9CDF86890CDE91F33D9
:10486000EB2314934FF440631B934FF400531793BF
:104870004FF440431C93A0231693062319934FF043
:10488000805321934FF04073CDE906671D9307F0E5
:104890007DF8034600288AD0434684F85C8086E78A
:1048A00001230322184684F85C2023B0BDE8F0837E
:1048B00000000000010000001000000001000000E6
:1048C0000000000000004000441600240050005288
:1048D0002DE9F04F8FB0414B0024026800AF9A429F
:1048E0007C63C7E90944C7E90B4403D03C37BD46A4
:1048F000BDE8F08F3A4B40F609213A48EB46D3F831
:10490000D42007F11C0607F1220A4FF0020942F4F5
:1049100080424FF00308C3F8D420D3F8D42002F427
:104920008042BA60BA68D3F8E02042F04002C3F88F
:10493000E020D3F8E02002F04002FA60FA68D3F8F1
:10494000E02042F02002C3F8E020D3F8E02002F09B
:1049500020023A613A69D3F8E02042F01002C3F82D
:10496000E020D3F8E02002F010027A617A69D3F8EF
:10497000E02042F00202C3F8E020D3F8E030F86112
:1049800003F002033984BB61174B7B60BB697B6812
:1049900053F8040F7B6002F099FA7B6805461868AB
:1049A00002F09CFA16F8013B786207F124012846D0
:1049B000C7F830807B63C7E90A9404F015FD5645BB
:1049C000E5D100225C20114603F0ACF95C2003F035
:1049D000E7F93C37DD46BD46BDE8F08F0050005298
:1049E000004402580A0A0909A0160024114B026863
:1049F0009A4200D07047104A70B5D2F8D4300F4CAC
:104A000023F4804304F11806C2F8D43054F8040F9C
:104A100002F05CFA0546206802F060FA014628467A
:104A200004F022FEB442F1D15C20BDE8704003F0F6
:104A3000C5B900BF0050005200440258A01600241F
:104A4000014807F02FB800BF54160024084B1A1D68
:104A5000981D03F1080110B49C1C9A6603F10A0228
:104A6000C3E91834C3E91B015DF8044B5A6770476A
:104A70004416002438B5036871B9026A00F12805AC
:104A800000F5AC74012A0CBF002140218BBB1D4BEB
:104A90005722C0F858310DE0426A00F1C00500F518
:104AA000E874012A0CBF00214021EBB1164B5A22B9
:104AB000C0F8D03100232046C4E901214FF48052D0
:104AC0004FF48061636262614FF48042C4E9033154
:104AD0004FF48073C4E906234FF40033236203F0DC
:104AE000ABFC58B1FFBEFEE7084B5822C0F8D031EE
:104AF000E0E7074B5922C0F85831DBE7C5E920440D
:104B0000A56338BD1000024070000240280002403A
:104B1000580002402DE9F043821D05468BB0031D6D
:104B200005F10A010830CDE9052305F10C02AB6956
:104B3000CDE907010992002B3DD0EB69B3FA83F868
:104B40004FEA58180123022205AE0AAF4FF00609BA
:104B50000393CDE9012356F8044B2B792278934235
:104B600016D02B68F3B1012B02D1F2B10A230493C2
:104B7000204602F0B3F903462046009302F0A6F95E
:104B8000694604F031FCBE42E5D10BB0BDE8F083CC
:104B9000697963789942E4D1B8F1000FF3D02B68BA
:104BA000002BE0D1CDF81090E2E76378022B14BF20
:104BB0000A230823DBE74FF00108C3E7534A0368E1
:104BC000934230B505468BB055D02032934252D037
:104BD0004F4A934204D02032934201D00BB030BDF3
:104BE0004C4C4D48D4F8E03043F00103C4F8E030B9
:104BF000D4F8E03003F001030593059BD4F8E030CE
:104C000043F00803C4F8E030D4F8E03003F00803C0
:104C10000693069BD4F8E03043F04003C4F8E0303C
:104C2000D4F8E03003F040030793079BD4F8F0304A
:104C300043F40003C4F8F030D4F8F03003F4000378
:104C40000893089BFFF766FFD4F8D830296843F033
:104C500001032F4A3048C4F8D830891AD4F8D83024
:104C600018BF012103F001030993099B0BB0BDE8B4
:104C70003040FFF7FFBE274C2848D4F8E03043F01F
:104C80000103C4F8E030D4F8E03003F001030093EE
:104C9000009BD4F8E03043F01003C4F8E030D4F8BF
:104CA000E03003F010030193019BD4F8E03043F0AF
:104CB0004003C4F8E030D4F8E03003F0400302933E
:104CC000029BD4F8F03043F48003C4F8F030D4F8F9
:104CD000F03003F480030393039BFFF71BFFD4F82A
:104CE000D830296843F00103084A0C48C4F8D8308A
:104CF000891AD4F8D83018BF012103F001030493B6
:104D0000049B0BB0BDE83040FFF7B4BE045801402F
:104D1000045C01400044025818190024BC16002409
:104D2000014804F00FB800BF14180024014804F033
:104D300009B800BF8C180024014804F003B800BF74
:104D4000701A0024014803F0FDBF00BFE81A0024D8
:104D50001A4A0368934210B40BD02032934208D011
:104D6000174A934216D02032934213D05DF8044B79
:104D70007047144B0022D3F85442C3F85822002C39
:104D8000F4D0D3F84802D3E9931223465DF8044BDC
:104D9000520818470B4B0022D3F8B044C3F8B42490
:104DA000002CE3D0D3F8AC24D3F8A814D3F8A4048F
:104DB000520823465DF8044B184700BF04580140D1
:104DC000045C0140BC160024184A0368934210B4E6
:104DD0000BD02032934208D0154A934217D020328C
:104DE000934214D05DF8044B7047124BD3E99424DE
:104DF0005208C3F85822002CF4D0D3E9920123467C
:104E000001EB820100EB82005DF8044B1847094B6F
:104E1000D3F8AC24D3F8B0445208C3F8B424002C1F
:104E2000E0D0D3F8A814D3F8A404E8E7045801406C
:104E3000045C0140BC1600242DE9F04F0C684FF4CF
:104E40001776754F87B004FB06F6012C07EB060AB0
:104E5000C0F800A000F3A0800D468E464FF0000879
:104E6000D44669A3D3E9002369A1D1E90001CDE9C2
:104E7000022306ABCAF8508203EB8403CDE9040198
:104E800053F810BC53F8083CCAE992880193BEE875
:104E90000F00ACE80F00BEE80F00ACE80F00019B6C
:104EA0009EE80300CAF828B0CAF8C0308CE80300B6
:104EB0002B69042B0CD8DFE803F0737D8791030086
:104EC0004FF41773554A03FB04739A64C3F8E02048
:104ED000AA692B6A002A43D0002B4FF4177308BF2E
:104EE000022203FB047318BF0322DA6201221A6351
:104EF000EA696B6A002A40D1191E4FF4177318BF74
:104F0000012103FB0473C3E931126B69022B05D83D
:104F1000434A12F80380434A52F823904FF4177320
:104F200006F128004246494603FB04740023384436
:104F300063646363E365C4F8DC30C4F8CC30C4F860
:104F4000F430C4E90F33C4E91533C4E93533C4E997
:104F50003B33022308F048FE002849D0FFBEFEE79D
:104F6000191E4FF4177318BF012103FB0473C3E923
:104F70000B12EA696B6A002ABED0002B4FF417733C
:104F800008BF022203FB047318BF0322C3F8C42026
:104F90000122C3F8C820B8E7012007B0BDE8F08FB0
:104FA0004FF417734FF4FA5203FB04739A64C3F877
:104FB000E0208DE74FF417734FF47A5203FB04732C
:104FC0009A64C3F8E02083E74FF417734FF4FA4272
:104FD00003FB04739A64C3F8E02079E74FF4177376
:104FE0004BF6803203FB04739A64C3F8E0206FE74A
:104FF00006F1C000022342464946384408F0F4FD59
:105000000028CAD0FFBEFEE704580140045C0140FE
:1050100024580140245C0140BC16002400770100A4
:105020008C5A0108905A01080068704770B50468EE
:1050300082B015460E46C4F85032C4E99212069A60
:10504000C4F85422A269012A26D0626A012A9AB2BF
:1050500011D0294604F1C000019208F081FE236AB4
:10506000019A012B10D0294604F1280008F078FE9F
:10507000002002B070BD04F1C000019208F002FFF0
:10508000236A019A012BEED1314604F1280008F081
:10509000F9FE002002B070BD226A012A9AB211D036
:1050A000294604F12800019208F05AFE636A019A29
:1050B000012B10D0294604F1C00008F051FE002059
:1050C00002B070BD04F12800019208F0DBFE636AB3
:1050D000019A012BEED1314604F1C00008F0D2FE56
:1050E000002002B070BD00BF03681B69042B05D807
:1050F000044A02EB830393ED000A70479FED020A16
:10510000704700BF9C5A010800803B470368D3F8F2
:105110005802704770B5002304464FF480620421A2
:105120004FF440353448C4F83821C4F8D410C4F8DA
:105130003431C4F84C113149C4F8B000C4F8281116
:10514000C4E92F32C4E93133C4E93335C4E9373314
:10515000C4E94F33C4E95135C4E95533A268032388
:10516000C4F8D830C4F85031042A0AD8DFE802F075
:105170001F262D34030055225623C4F8B420C4F84A
:105180002C310022402304F1B005C4F8B820284691
:10519000C4F8303103F050F908B1FFBEFEE704F562
:1051A0009476304603F048F9E8B1FFBEFEE72522C9
:1051B0002623C4F8B420C4F82C31E2E727222823A0
:1051C000C4F8B420C4F82C31DBE73D223E23C4F8F8
:1051D000B420C4F82C31D4E753225423C4F8B420AB
:1051E000C4F82C31CDE704F12803C4E92865C4F8DC
:1051F000E830C4F8603170BD4004024058040240F9
:105200002DE9F04F814683B00E4617461D4600F14A
:105210002804204609F0CAFE01288246F9D14846F2
:10522000FFF778FF8046002835D1EFF31083019314
:1052300072B6DFF888B00C9B99F90820DFF880A0DF
:10524000DFF88090CBF800300D9B89F80020CAF879
:1052500000300DB11846A847BAB23146204609F0D1
:105260001BFA30B9019B03B962B6404603B0BDE8F2
:10527000F08F0023CBF80030CAF80030FF2389F804
:1052800000300C9B8BB101210D9888469847019BFB
:10529000002BEAD1E8E70C9B53B1D0460D9851465C
:1052A0009847404603B0BDE8F08F4FF00108D9E7BA
:1052B000D046404603B0BDE8F08F00BF94250024DF
:1052C0009C250024982500242DE9F04F814683B0C9
:1052D0000E4617461D4600F12804204609F066FEDA
:1052E00001288246F9D14846FFF714FF804600287E
:1052F00035D1EFF31083019372B6DFF888B00C9BC1
:1053000099F90820DFF880A0DFF88090CBF8003012
:105310000D9B89F80020CAF800300DB11846A84747
:10532000BAB23146204609F07BFB30B9019B03B984
:1053300062B6404603B0BDE8F08F0023CBF80030E2
:10534000CAF80030FF2389F800300C9B8BB1012193
:105350000D9888469847019B002BEAD1E8E70C9B03
:1053600053B1D0460D9851469847404603B0BDE82A
:10537000F08F4FF00108D9E7D046404603B0BDE8B2
:10538000F08F00BF942500249C250024982500243C
:105390002DE9F04F814683B00F461646984600F13E
:1053A0002804204609F002FE0128FAD18246484628
:1053B000FFF7B0FE0546002838D1EFF310830193C4
:1053C00072B699F90830DFF88890DFF888B089F86C
:1053D00000300D9BDFF880A0CBF800300E9BCAF8A0
:1053E00000300C9B0BB10E9898471FFA88F33A4691
:1053F0003146204609F008FA30B9019B03B962B67C
:10540000284603B0BDE8F08F0023CBF80030CAF87F
:105410000030FF2389F800300D9B8BB101210E98DD
:105420000D469847019B002BEAD1E8E70D9B4BB155
:1054300055460E9851469847284603B0BDE8F08F70
:105440000125DAE75546284603B0BDE8F08F00BFD6
:1054500098250024942500249C2500242DE9F04360
:10546000002387B00222044605690493CDE9022394
:10547000D0E902128E00FAB1022D7AD02178B5FA65
:1054800085F54FF00108276A0B294FEA551521D100
:10549000A2780B2A02D0B8F1000F38D123790B2B58
:1054A00001D0002D6CD1A37917B10B2B40F099805E
:1054B000002007B0BDE8F08335F002032178276AA9
:1054C0000CBF4FF001084FF00008023D18BF012546
:1054D0000B29DDD07D4B94F801C053F826201078BD
:1054E0000B2802D0884200F0AD80D378D01C9942BE
:1054F00002D10B2B40F0BD809379901D8B4202D1DD
:105500000B2B40F0BC80012007B0BDE8F083711C7C
:105510006E4BE07853F8213019780B2902D08A427B
:1055200000F0B580D97803F1030C0B2902D08A4230
:1055300000F0BB80997903F1060C0B29E3D08A4275
:10554000E1D1DB798342DED1634604F102099B7825
:105550004846059301F0BAFC8046484601F0BEFC7F
:1055600001A90190404603F03FFF23790B2B98D10E
:1055700099E70178076A0B2940F0868001258DE7BD
:10558000B11C524A607952F8212011780B2902D0BF
:105590008B4200F08180D178D51C0B2902D08B4240
:1055A00000F08D809179951D8B42ACD10B29AAD04A
:1055B000D3798342A7D12A46251D9378284605939F
:1055C00001F084FC034628461D4601F087FC01A932
:1055D0000190284603F008FFA379002F7FF465AF00
:1055E00066E7F11C394AE07952F8212011780B293D
:1055F00001D08B425FD0D178D51C0B2901D08B42D2
:105600004FD09179951D8B427FF47DAF0B293FF4EC
:105610007AAFD37983427FF476AF2A46A51D93787B
:105620002846059301F052FC0446284601F056FC3A
:10563000034601A92046019303F0D6FE002007B0DF
:10564000BDE8F083537863457FF44FAF93782046ED
:10565000059301F03BFC8146204601F03FFC01A987
:105660000190484603F0C0FEA2780B2A7FF413AFE6
:1056700014E7137963457FF43FAF0246E6E7D37939
:1056800063457FF440AFF8E79846012522E7597853
:1056900081427FF447AF58E7517881427FF47BAF76
:1056A0008AE711798142ACD1B7E7197981427FF459
:1056B00041AF634649E7517881429CD1AEE7117909
:1056C00081427FF46FAF2A4676E700BFD85A0108BF
:1056D000654A0368934200F0B980A2F5784293428C
:1056E00000F0B68002F58062934200F0B38002F5CC
:1056F0007842934200F0B08002F5E052934200F00D
:10570000AD805A4A934240F0AB8005234FF4D071EC
:10571000574A01FB03F310B5D418D05C86B001F0F2
:10572000E5FBA07801F0E2FB207901F0DFFBA07936
:1057300001F0DCFBA368052B11D8DFE803F0192F7B
:10574000455B71034B4BD3F8F42042F02002C3F8C1
:10575000F420D3F8F43003F020030593059B204692
:10576000FFF77CFE012801D006B010BDFFBEFEE7AA
:10577000404B00222320D3F8F01041F48051C3F8AD
:10578000F0101146D3F8F03003F480530093009BDF
:1057900002F0C8FA232002F003FBE0E7354B0022B9
:1057A0002420D3F8E81041F48041C3F8E8101146F2
:1057B000D3F8E83003F480430193019B02F0B2FA7E
:1057C000242002F0EDFACAE72A4B00223320D3F856
:1057D000E81041F40041C3F8E8101146D3F8E8306E
:1057E00003F400430293029B02F09CFA332002F080
:1057F000D7FAB4E71F4B00225420D3F8F01041F43D
:105800000051C3F8F0101146D3F8F03003F4005300
:105810000393039B02F086FA542002F0C1FA9EE73C
:10582000144B00225520D3F8F01041F48011C3F836
:10583000F0101146D3F8F03003F480130493049B66
:1058400002F070FA552002F0ABFA88E700235DE71A
:1058500001235BE7022359E7032357E7042355E7B6
:1058600000231B78FFDE00BF003001400014005809
:10587000741B0024004402582DE9F043002289B033
:105880001B4B01210DF1040C9E461A4B0791E1467A
:10589000E04667460EF11C060EF138050EF1540481
:1058A000CDE90122CDE90322CDE90522FF221A70BC
:1058B000BCE80F00AEE80F009CE807008EE8070088
:1058C000B9E80F000FC69CE8070086E80700B8E8B3
:1058D0000F000FC59CE8070085E807000FCF0FC435
:1058E0009CE8070084E8070009B0BDE8F08300BF2A
:1058F0002001002498250024014809F02BBA00BF9C
:105900009C1B0024014809F025BA00BF3C1D00245F
:10591000014809F01FBA00BFDC1E0024014809F04D
:1059200019BA00BF7C200024014809F013BA00BF57
:105930001C22002410B5EFF3108472B6084B1A78BD
:10594000120602D504B962B610BD1B784FF4D072AE
:1059500004485BB202FB0300B03003F0F3F9F1E757
:1059600098250024741B002410B5EFF3108472B640
:10597000094B1A78120602D504B962B610BD1B781D
:105980004FF4D07205485BB202FB030000F594703F
:1059900003F0D8F9F0E700BF98250024741B002419
:1059A0002DE9F04184B0EFF3108772B6284AFF2149
:1059B000284C1368217023B100211160264A106819
:1059C000984723781B061CD5DFF894800025234ECA
:1059D0004446216879B162686AB1A369012B22D07B
:1059E000A3B963693046019323690093E368228970
:1059F000FFF76AFC18B301351C3406F5D076042D88
:105A0000E7D107B962B604B0BDE8F081D4E904304B
:105A1000CDE90130E068238900903046FFF7B8FCFB
:105A20000028E8D10BE0D4E904301146CDE900307C
:105A30003046E3682289FFF7E3FB0028DBD1C5EBA2
:105A4000C50508EB850348F825005860D9E700BF75
:105A500094250024982500249C250024741B0024F0
:105A6000200100242DE9F04184B0EFF3108772B6D5
:105A7000284AFF21284C1368217023B100211160AE
:105A8000264A1068984723781B061CD5DFF89480B7
:105A90000025234E4446216879B162686AB1A36942
:105AA000012B22D0A3B96369304601932369009387
:105AB000E3682289FFF708FC18B301351C3406F5AA
:105AC000D076042DE7D107B962B604B0BDE8F08105
:105AD000D4E90430CDE90130E068238900903046F4
